:020000040800F2
:100000000080012091100008051000080B10000866
:1000100011100008171000081D1000080000000053
:100020000000000000000000000000002310000895
:1000300031100008000000003F1000084D100008BB
:10004000E1100008E1100008E1100008E1100008CC
:10005000E1100008E1100008E1100008E1100008BC
:10006000E1100008E1100008E1100008E1100008AC
:10007000E1100008E1100008E1100008E11000089C
:10008000E1100008E1100008E11000080000000085
:10009000000000000000000000000000E110000867
:1000A000E1100008E1100008E1100008E11000086C
:1000B000E1100008E1100008E1100008E11000085C
:1000C000E1100008E1100008E1100008E11000084C
:1000D000E1100008E1100008E11000080000000035
:1000E000E1100008E1100008E11000080000000025
:1000F000000000000000000000000000E110000807
:1001000000000000E1100008E1100008E110000804
:1001100000000000000000000000000000000000DF
:10012000E1100008E1100008E1100008E1100008EB
:10013000E1100008000000000000000000000000C6
:10014000000000000000000000000000E1100008B6
:10015000E1100008E1100008E11000085910000843
:10016000E1100008E110000800000000000000009D
:10017000000000000000000000000000000000007F
:1001800000000000E1100008000000000000000076
:04019000E110000872
:1001940010B5054C237833B9044B13B10448AFF3BD
:1001A40000800123237010BD0C000020000000001B
:1001B4001438000808B5034B1BB103490348AFF3D7
:1001C400008008BD00000000100000201438000862
:1001D40053B94AB9002908BF00281CBF4FF0FF31AA
:1001E4004FF0FF3000F06EB9ADF1080C6DE904CEAC
:1001F40000F006F8DDF804E0DDE9022304B07047FE
:100204002DE9F047089D04468C46002B40F083807E
:100214008A42174647D9B2FA82F242B1C2F12000AB
:1002240024FA00F09140974040EA010C94404FEAD0
:100234001748230CBCFBF8F61FFA87FE08FB16C10F
:1002440043EA014306FB0EF1994209D9FB1806F172
:10025400FF3080F01981994240F21681023E3B44FE
:100264005B1AA4B2B3FBF8F008FB103344EA03446E
:1002740000FB0EFEA64509D93C1900F1FF3380F0BE
:100284000581A64540F2028102383C4440EA06401A
:10029400A4EB0E0400261DB1D4400023C5E900439D
:1002A4003146BDE8F08702B9FFDEB2FA82F2002AD5
:1002B40050D1CB1B4FEA174E1FFA87F80126B3FB28
:1002C400FEFC210C0EFB1C3341EA034108FB0CF33A
:1002D4008B4207D979180CF1FF3002D28B4200F21D
:1002E400E9808446C91AA3B2B1FBFEF00EFB1011DB
:1002F40043EA014408FB00F8A04507D93C1900F182
:10030400FF3302D2A04500F2D9801846A4EB0804BA
:1003140040EA0C40BFE78B4209D9002D00F0B180C0
:100324000026C5E9000130463146BDE8F087B3FA3E
:1003340083F6002E4AD18B4202D3824200F2B88067
:10034400841A61EB030101208C46002DA8D0C5E975
:10035400004CA5E7C2F1200320FA03F6974001FA06
:1003640002F04FEA174ED9403043030CB1FBFEF6BE
:100374001FFA87F80EFB161143EA014306FB08F146
:10038400994204FA02F409D9FB1806F1FF3C80F003
:100394008D80994240F28A80023E3B445B1A81B2CE
:1003A400B3FBFEF00EFB103341EA034100FB08F3FC
:1003B4008B4207D9791800F1FF3C73D28B4271D973
:1003C40002383944CB1A40EA064678E7C6F1200CD5
:1003D40003FA06F422FA0CF31C4320FA0CF701FA90
:1003E40006F34FEA144E21FA0CF11F433B0CB1FB08
:1003F400FEF91FFA84F80EFB191143EA014109FBC7
:1004040008FA8A4502FA06F200FA06F308D96118D6
:1004140009F1FF3048D28A4546D9A9F1020921449D
:10042400A1EB0A01BFB2B1FBFEF00EFB101147EACB
:10043400014700FB08F8B84507D9E71900F1FF3177
:100444002ED2B8452CD90238274440EA0940A7EBFC
:100454000807A0FB02894F45C64649461AD317D060
:100464005DB1B3EB0E0267EB010707FA0CFCF24037
:100474004CEA0202F740C5E9002700263146BDE8F0
:10048400F0872E4628460BE70646E9E61846FDE6C1
:100494004345E5D2B8EB020E69EB04010138DFE70E
:1004A4000846D2E760468DE78146B9E7664675E7B8
:1004B40030464AE7ACF1020C394413E702383C44B5
:1004C40024E700BF704700BF80B594B000AF00239D
:1004D400BB640123FB64D34A07F1200392E80300C1
:1004E400186004331980D04A07F1140307CA03C300
:1004F4001A70CE4A07F10C0392E803001860043323
:100504001980CB4A3B1D92E8030083E80300FE23D5
:10051400FB700123BB70C0237B7000233B7000F091
:10052400DFFD00F06DFA00F079FB00F023FB00F032
:10053400C7FA00F049FBF91C4FF47A730122BD4855
:1005440002F0BFF939464FF47A730122B94802F038
:10055400B8F9642000F036FEF91C4FF47A730122D6
:10056400B44802F0AEF9B91C4FF47A730122B148D1
:1005740002F0A7F9642000F025FEF91C4FF47A7309
:100584000122AC4802F09DF939464FF47A730122F6
:10059400A84802F096F9642000F014FE07F1200147
:1005A4004FF0FF330622A34802F08BF9F91C4FF4F5
:1005B4007A7301229F4802F084F939464FF47A7322
:1005C40001229C4802F07DF901229B49994802F0DE
:1005D4000AFA994B1B78612B40F0A0810122022179
:1005E400964801F053F901220821944801F04EF98C
:1005F40001222021914801F049F90122102190485B
:1006040001F044F901224FF400718C4801F03EF9E5
:1006140001224FF40061894801F038F9F91C4FF4C4
:100624007A730122834802F04CF939464FF47A7305
:100634000122804802F045F9322000F0C3FDF91C84
:100644004FF47A7301227B4802F03BF9791C4FF492
:100654007A730122774802F034F9322000F0B2FDB7
:1006640007F10C014FF0FF330622724802F029F91A
:1006740041F2883000F0A6FDF91C4FF47A73012290
:100684006C4802F01EF9B91C4FF47A7301226948D0
:1006940002F017F907F120014FF0FF3306226548F5
:1006A40002F00FF942F2107000F08CFD4FF480510B
:1006B400624801F0D3F80346002B29D101215F4899
:1006C40001F0CCF80346002B22D102215B4801F053
:1006D400C5F80346002B1BD00121584801F0EFF860
:1006E4000221564801F0EBF80421564801F0E7F8DE
:1006F4004FF48071534801F0E2F8642000F062FD89
:100704004FF480714F4801F0DAF8642000F05AFD8C
:100714004FF48051494801F0A1F80346002B1DD144
:100724000121464801F09AF80346002B16D0022115
:10073400424801F093F80346002B0FD14FF4807127
:10074400404801F0BCF8642000F03CFD4FF4807197
:100754003C4801F0B4F8642000F034FD102139481D
:1007640001F07CF80346002B1ED10421334801F02C
:1007740075F80346002B17D10821304801F06EF8B4
:100784000346002B10D04FF480712E4801F097F8E7
:1007940004212C4801F093F80421284801F08FF833
:1007A4000821264801F08BF82021264801F056F84C
:1007B4000346002B1ED11021204801F04FF80346B8
:1007C400002B17D120211D4801F048F80346002BC7
:1007D40010D04FF480711B4801F071F804211948BE
:1007E40001F06DF81021154801F069F82021134833
:1007F40001F065F84021134801F030F80346002B5E
:1008040034D14FF400410E4801F028F80346002B80
:100814002CD110210A4801F021F80346002B25D0E1
:1008240012E000BF2C3800083438000840380008B3
:1008340048380008740000207000002000080240BE
:1008440000000240000402404FF48071674801F048
:1008540036F80421654801F032F84FF40041644849
:1008640001F02DF81021624801F029F801216048B7
:1008740000F0F4FF0346002B22D14FF480715D4851
:1008840000F0ECFF0346002B1AD14FF400715948D5
:1008940000F0E4FF0346002B12D04FF4807153485C
:1008A40001F00DF80421514801F009F84FF480716A
:1008B400504801F004F84FF400714E4800F0FFFF77
:1008C40002214B4800F0CAFF0346002B22D14FF40B
:1008D4008061484800F0C2FF0346002B1AD14FF450
:1008E4000061444800F0BAFF0346002B12D04FF4D5
:1008F40080713E4800F0E3FF04213C4800F0DFFF34
:100904004FF480613B4800F0DAFF4FF4006139484E
:1009140000F0D5FF384B65221A7066E0364B1B7821
:10092400642B7FF456AE00220221324800F0AEFF61
:10093400002220212F4800F0A9FF002210212C487A
:1009440000F0A4FF00224FF400712A4800F09EFF3B
:1009540000224FF40061274800F098FFF91C4FF47F
:100964007A730122254801F0ACFF39464FF47A73BB
:100974000122224801F0A5FF322000F023FCF91CDB
:100984004FF47A7301221D4801F09BFF791C4FF448
:100994007A730122194801F094FF322000F012FC0E
:1009A40007F114014FF0FF330922144801F089FFC5
:1009B4004FF4FA6000F006FCF91C4FF47A7301223C
:1009C4000E4801F07EFFB91C4FF47A7301220B48E4
:1009D40001F077FF07F120014FF0FF3306220748AB
:1009E40001F06FFF044B65221A70F2E50004024027
:1009F4000000024000080240700000207400002043
:100A040080B594B000AF07F12003302200211846CE
:100A140002F0F6FE07F10C0300221A605A609A6095
:100A2400DA601A610023BB60234B1B6C224A43F03B
:100A340080531364204B1B6C03F08053BB60BB6872
:100A440000237B601D4B1B6823F440431B4A43F483
:100A540000431360194B1B6803F440437B607B68BD
:100A640002233B620123FB6210233B630023BB632D
:100A740007F12003184600F03DFF0346002B01D088
:100A840000F0AEF90F23FB6000233B6100237B6180
:100A94000023BB610023FB6107F10C03002118460E
:100AA40001F0A0F90346002B01D000F099F900BF32
:100AB4005037BD4680BD00BF003802400070004082
:100AC40080B58AB000AF07F1200300221A605A6093
:100AD4003B1D00221A605A609A60DA601A615A61FA
:100AE4009A61224B224A1A60204B0F225A601F4BF4
:100AF40000229A601D4B40F2E732DA601B4B002261
:100B04001A611A4B80229A61184801F067FB034668
:100B1400002B01D000F064F900233B6200237B62C8
:100B240007F120031946114801F010FE0346002B7B
:100B340001D000F055F930237B600023BB60002313
:100B4400FB6000237B613B1D04221946074801F02A
:100B540095FB0346002B01D000F042F9034800F056
:100B64008FF900BF2837BD4680BD00BF2800002094
:100B74000008004080B500AF114B124A1A60104BB8
:100B84004FF4E1325A600E4B00229A600C4B002263
:100B9400DA600B4B00221A61094B0C225A61084B94
:100BA40000229A61064B0022DA61054801F03CFEFE
:100BB4000346002B01D000F013F900BF80BD00BF35
:100BC400B80000200044004080B500AF114B124A29
:100BD4001A60104B4FF416525A600E4B00229A6062
:100BE4000C4B0022DA600B4B00221A61094B0C22D9
:100BF4005A61084B00229A61064B0022DA610548CB
:100C040001F012FE0346002B01D000F0E9F800BF0A
:100C140080BD00BF740000200014014080B58AB07C
:100C240000AF07F1140300221A605A609A60DA6078
:100C34001A6100233B61574B1B6B564A43F0040374
:100C44001363544B1B6B03F004033B613B690023A8
:100C5400FB60504B1B6B4F4A43F0800313634D4BB7
:100C64001B6B03F08003FB60FB680023BB60494BF4
:100C74001B6B484A43F001031363464B1B6B03F0A1
:100C84000103BB60BB6800237B60424B1B6B414A82
:100C940043F0020313633F4B1B6B03F002037B60BF
:100CA4007B68002240F63F713B4800F0EFFD0022D4
:100CB40048F2F031394800F0E9FD002245F207110D
:100CC400374800F0E3FD4FF400537B614FF4041305
:100CD400BB610023FB6107F1140319462E4800F0A1
:100CE40039FC40F63F737B610123BB610023FB6148
:100CF40000233B6207F114031946274800F02AFC3D
:100D040041F603437B610023BB610023FB6107F1D0
:100D140014031946214800F01DFC48F2F0337B61AE
:100D24000123BB610023FB6100233B6207F1140331
:100D340019461A4800F00EFC45F207137B610123A3
:100D4400BB610023FB6100233B6207F114031946D6
:100D5400134800F0FFFB4AF270037B610023BB6180
:100D64000023FB6107F1140319460D4800F0F2FB60
:100D74004FF480537B610023BB610023FB6107F1C7
:100D840014031946044800F0E5FB00BF2837BD46AC
:100D940080BD00BF0038024000080240000002404D
:100DA4000004024080B582B000AF78607B681B68A5
:100DB400084A93420AD1642301220749074801F0F3
:100DC40080FD01220449054801F00DFE00BF0837EB
:100DD400BD4680BD00140140700000207400002056
:100DE40080B400AF72B600BFFEE7000080B582B0E9
:100DF40000AF00237B60104B5B6C0F4A43F48043CD
:100E040053640D4B5B6C03F480437B607B6800236D
:100E14003B60094B1B6C084A43F080531364064B38
:100E24001B6C03F080533B603B68072000F0BEFA64
:100E340000BF0837BD4680BD0038024080B485B08D
:100E440000AF78607B681B680B4A93420DD1002386
:100E5400FB600A4B1B6C094A43F004031364074B01
:100E64001B6C03F00403FB60FB6800BF1437BD4632
:100E74005DF8047B704700BF000800400038024062
:100E840080B588B000AF786007F10C0300221A60C7
:100E94005A609A60DA601A617B681B68124A93424E
:100EA4001DD10023BB60114B1B6B104A43F002039E
:100EB40013630E4B1B6B03F00203BB60BB68802300
:100EC400FB6002233B6100237B610023BB6102239F
:100ED400FB6107F10C031946054800F03BFB00BF1A
:100EE4002037BD4680BD00BF0008004000380240E6
:100EF4000004024080B58CB000AF786007F11C0399
:100F040000221A605A609A60DA601A617B681B6872
:100F1400364A93422CD10023BB61354B1B6C344AB7
:100F240043F400331364324B1B6C03F40033BB6192
:100F3400BB6900237B612E4B1B6B2D4A43F00103DD
:100F440013632B4B1B6B03F001037B617B690C2345
:100F5400FB6102233B6200237B620023BB62072305
:100F6400FB6207F11C031946224800F0F3FA38E04B
:100F74007B681B68204A934233D100233B611C4B9E
:100F84005B6C1B4A43F020035364194B5B6C03F006
:100F940020033B613B690023FB60154B1B6B144A28
:100FA40043F004031363124B1B6B03F00403FB6055
:100FB400FB68C023FB6102233B6200237B620323A3
:100FC400BB620823FB6207F11C0319460B4800F0BF
:100FD400C1FA00220021472000F0F3F9472000F075
:100FE4000CFA00BF3037BD4680BD00BF004400404E
:100FF4000038024000000240001401400008024092
:1010040080B400AFFEE780B400AFFEE780B400AF69
:10101400FEE780B400AFFEE780B400AFFEE780B423
:1010240000AF00BFBD465DF8047B704780B400AFDD
:1010340000BFBD465DF8047B704780B400AF00BFBD
:10104400BD465DF8047B704780B500AF00F09AF8A8
:1010540000BF80BD80B500AF024801F0F5FC00BFC1
:1010640080BD00BF7400002080B400AF064BD3F8ED
:101074008830054A43F47003C2F8883000BFBD4687
:101084005DF8047B704700BF00ED00E0DFF834D06A
:101094000D480E490E4A002302E0D458C4500433CC
:1010A400C4188C42F9D30B4A0B4C002301E01360A3
:1010B4000432A242FBD3FFF7D7FF02F07DFBFFF718
:1010C40003FA704700800120000000200C0000207B
:1010D400783800080C00002000010020FEE7000022
:1010E40080B500AF0E4B1B680D4A43F400731360C8
:1010F4000B4B1B680A4A43F480631360084B1B685C
:10110400074A43F480731360032000F04FF9002072
:1011140000F008F8FFF76AFE0023184680BD00BF00
:10112400003C024080B582B000AF7860124B1A6870
:10113400124B1B7819464FF47A73B3FBF1F3B2FBED
:10114400F3F3184600F067F90346002B01D001239E
:101154000EE07B680F2B0AD8002279684FF0FF302D
:1011640000F02FF9064A7B681360002300E0012396
:1011740018460837BD4680BD000000200800002046
:101184000400002080B400AF064B1B781A46064BBF
:101194001B681344044A136000BFBD465DF8047B1A
:1011A400704700BF08000020FC00002080B400AF9E
:1011B400034B1B681846BD465DF8047B704700BFAF
:1011C400FC00002080B584B000AF7860FFF7EEFF2C
:1011D400B8607B68FB60FB68B3F1FF3F05D00A4B46
:1011E4001B781A46FB681344FB6000BFFFF7DEFF61
:1011F4000246BB68D31AFA689A42F7D800BF00BF08
:101204001037BD4680BD00BF0800002080B485B003
:1012140000AF78607B6803F00703FB600C4BDB686E
:10122400BB60BA684FF6FF031340BB60FB681A0249
:10123400BB68134343F0BF6343F40033BB60044A09
:10124400BB68D36000BF1437BD465DF8047B7047AC
:1012540000ED00E080B400AF044BDB681B0A03F030
:1012640007031846BD465DF8047B704700ED00E0B7
:1012740080B483B000AF0346FB7197F90730002BAD
:101284000BDBFB7903F01F02074997F907305B0971
:10129400012000FA02F241F8232000BF0C37BD46BA
:1012A4005DF8047B704700BF00E100E080B483B0C8
:1012B40000AF03463960FB7197F90730002B0ADB56
:1012C4003B68DAB20C4997F907301201D2B20B44E9
:1012D40083F800230AE03B68DAB20849FB7903F09B
:1012E4000F03043B1201D2B20B441A7600BF0C3731
:1012F400BD465DF8047B704700E100E000ED00E0CE
:1013040080B489B000AFF860B9607A60FB6803F01C
:101314000703FB61FB69C3F10703042B28BF042304
:10132400BB61FB690433062B02D9FB69033B00E074
:1013340000237B614FF0FF32BB6902FA03F3DA4307
:10134400BB681A407B699A404FF0FF317B6901FA10
:1013540003F3D9437B680B40134318462437BD4637
:101364005DF8047B7047000080B582B000AF786000
:101374007B68013BB3F1807F01D301230FE00A4A6C
:101384007B68013B53600F214FF0FF30FFF78EFF66
:10139400054B00229A60044B07221A60002318466A
:1013A4000837BD4680BD00BF10E000E080B582B0C4
:1013B40000AF78607868FFF729FF00BF0837BD46A3
:1013C40080BD80B586B000AF0346B9607A60FB7318
:1013D40000237B61FFF73EFF78617A68B96878691A
:1013E400FFF78EFF024697F90F3011461846FFF7B4
:1013F4005DFF00BF1837BD4680BD80B582B000AF29
:101404000346FB7197F907301846FFF731FF00BF19
:101414000837BD4680BD80B582B000AF786078687B
:10142400FFF7A2FF034618460837BD4680BD80B5C6
:1014340084B000AF78607B689B6DFB60FFF7B6FEFD
:10144400B8607B6893F83530DBB2022B08D07B6838
:1014540080225A657B68002283F83420012352E0FD
:101464007B681B681A687B681B6822F016021A6086
:101474007B681B685A697B681B6822F080025A618A
:101484007B681B6C002B03D17B689B6C002B07D003
:101494007B681B681A687B681B6822F008021A6064
:1014A4007B681B681A687B681B6822F001021A605B
:1014B40013E0FFF77BFE0246BB68D31A052B0CD959
:1014C4007B6820225A657B68032283F835207B6879
:1014D400002283F83420032315E07B681B681B6813
:1014E40003F00103002BE4D17B68DB6D3F229A40BB
:1014F400FB689A607B68012283F835207B680022B0
:1015040083F83420002318461037BD4680BD80B4CC
:1015140083B000AF78607B6893F83530DBB2022B80
:1015240004D07B6880225A6501230CE07B68052285
:1015340083F835207B681B681A687B681B6822F077
:1015440001021A60002318460C37BD465DF8047B7F
:101554007047000080B489B000AF78603960002320
:101564007B6100233B610023BB610023FB6159E1E4
:101574000122FB6902FA03F37B613B681B687A6909
:1015840013403B613A697B699A4240F048813B6869
:101594005B6803F00303012B05D03B685B6803F031
:1015A4000303022B30D17B689B68BB61FB695B0042
:1015B400032202FA03F3DB43BA691340BB613B68BD
:1015C400DA68FB695B0002FA03F3BA691343BB618F
:1015D4007B68BA699A607B685B68BB610122FB69BE
:1015E40002FA03F3DB43BA691340BB613B685B68EF
:1015F4001B0903F00102FB6902FA03F3BA691343FE
:10160400BB617B68BA695A603B685B6803F003039B
:10161400032B17D07B68DB68BB61FB695B0003228B
:1016240002FA03F3DB43BA691340BB613B689A686F
:10163400FB695B0002FA03F3BA691343BB617B687D
:10164400BA69DA603B685B6803F00303022B23D1B9
:10165400FB69DA087B68083253F82230BB61FB6906
:1016640003F007039B000F2202FA03F3DB43BA697A
:101674001340BB613B681A69FB6903F007039B00D5
:1016840002FA03F3BA691343BB61FB69DA087B68A6
:101694000832B96943F822107B681B68BB61FB6997
:1016A4005B00032202FA03F3DB43BA691340BB6114
:1016B4003B685B6803F00302FB695B0002FA03F317
:1016C400BA691343BB617B68BA691A603B685B689B
:1016D40003F44033002B00F0A2800023FB60574B3F
:1016E4005B6C564A43F480435364544B5B6C03F481
:1016F4008043FB60FB68524AFB699B08023352F843
:101704002330BB61FB6903F003039B000F2202FA41
:1017140003F3DB43BA691340BB617B68494A9342D4
:1017240019D07B68484A934213D07B68474A934256
:101734000DD07B68464A934207D07B68454A934262
:1017440001D1042308E0072306E0032304E0022375
:1017540002E0012300E00023FA6902F00302920090
:101764009340BA691343BB613549FB699B08023353
:10177400BA6941F82320384B1B68BB613B69DB43E2
:10178400BA691340BB613B685B6803F48033002B88
:1017940003D0BA693B691343BB612F4ABB69136029
:1017A4002D4B5B68BB613B69DB43BA691340BB618A
:1017B4003B685B6803F40033002B03D0BA693B69D0
:1017C4001343BB61244ABB695360234B9B68BB61D1
:1017D4003B69DB43BA691340BB613B685B6803F454
:1017E4008013002B03D0BA693B691343BB611A4AC7
:1017F400BB699360184BDB68BB613B69DB43BA6927
:101804001340BB613B685B6803F40013002B03D0F7
:10181400BA693B691343BB610F4ABB69D360FB6977
:101824000133FB61FB690F2B7FF6A2AE00BF00BF43
:101834002437BD465DF8047B704700BF0038024082
:101844000038014000000240000402400008024049
:10185400000C024000100240003C014080B485B0FE
:1018640000AF78600B467B807B681A697B881340E5
:10187400002B02D00123FB7301E00023FB73FB7BED
:1018840018461437BD465DF8047B704780B483B0B6
:1018940000AF78600B467B8013467B707B78002B0F
:1018A40003D07A887B689A6103E07B881A047B689A
:1018B4009A6100BF0C37BD465DF8047B704780B465
:1018C40085B000AF78600B467B807B685B69FB600A
:1018D4007A88FB6813401A04FB68D9437B880B4061
:1018E4001A437B689A6100BF1437BD465DF8047BD8
:1018F4007047000080B586B000AF78607B68002B2D
:1019040001D1012364E27B681B6803F00103002B0F
:1019140075D0A34B9B6803F00C03042B0CD0A04B95
:101924009B6803F00C03082B12D19D4B5B6803F4F6
:101934008003B3F5800F0BD1994B1B6803F400337C
:10194400002B5BD07B685B68002B57D101233FE2FF
:101954007B685B68B3F5803F06D1914B1B68904A66
:1019640043F4803313601DE07B685B68B3F5A02FFC
:101974000CD18B4B1B688A4A43F480231360884B39
:101984001B68874A43F4803313600BE0844B1B6865
:10199400834A23F480331360814B1B68804A23F409
:1019A400802313607B685B68002B13D0FFF7FEFB7A
:1019B400386108E0FFF7FAFB02463B69D31A642B4F
:1019C40001D9032304E2764B1B6803F40033002B94
:1019D400F0D014E0FFF7EAFB386108E0FFF7E6FB1C
:1019E40002463B69D31A642B01D90323F0E16C4B03
:1019F4001B6803F40033002BF0D100E000BF7B68C8
:101A04001B6803F00203002B63D0654B9B6803F053
:101A14000C03002B0BD0624B9B6803F00C03082BC8
:101A24001CD15F4B5B6803F48003002B16D15C4B25
:101A34001B6803F00203002B05D07B68DB68012BD5
:101A440001D00123C4E1564B1B6823F0F8027B68E4
:101A54001B69DB00524913430B603AE07B68DB6887
:101A6400002B20D04F4B01221A60FFF79FFB3861F7
:101A740008E0FFF79BFB02463B69D31A022B01D90E
:101A84000323A5E1464B1B6803F00203002BF0D0AF
:101A9400434B1B6823F0F8027B681B69DB00404959
:101AA40013430B6015E03F4B00221A60FFF77EFBE7
:101AB400386108E0FFF77AFB02463B69D31A022B30
:101AC40001D9032384E1364B1B6803F00203002B86
:101AD400F0D17B681B6803F00803002B30D07B68CF
:101AE4005B69002B16D0304B01221A60FFF75EFBB6
:101AF400386108E0FFF75AFB02463B69D31A022B10
:101B040001D9032364E1264B5B6F03F00203002B2E
:101B1400F0D015E0244B00221A60FFF747FB386130
:101B240008E0FFF743FB02463B69D31A022B01D9B5
:101B340003234DE11A4B5B6F03F00203002BF0D13A
:101B44007B681B6803F00403002B00F0A0800023D3
:101B5400FB75134B1B6C03F08053002B0FD1002338
:101B6400BB600F4B1B6C0E4A43F0805313640C4B49
:101B74001B6C03F08053BB60BB680123FB750B4BEC
:101B84001B6803F48073002B21D1084B1B68074AA0
:101B940043F480731360FFF709FB386111E000BF61
:101BA4000038024000004742800E47420070004067
:101BB400FFF7FCFA02463B69D31A022B01D903232F
:101BC40006E1854B1B6803F48073002BF0D07B681F
:101BD4009B68012B06D1814B1B6F804A43F00103A4
:101BE40013671CE07B689B68052B0CD17B4B1B6F38
:101BF4007A4A43F004031367784B1B6F774A43F028
:101C0400010313670BE0754B1B6F744A23F0010348
:101C14001367724B1B6F714A23F0040313677B68CD
:101C24009B68002B15D0FFF7C1FA38610AE0FFF773
:101C3400BDFA02463B69D31A41F28832934201D974
:101C44000323C5E0654B1B6F03F00203002BEED0AA
:101C540014E0FFF7ABFA38610AE0FFF7A7FA02468F
:101C64003B69D31A41F28832934201D90323AFE08E
:101C74005A4B1B6F03F00203002BEED1FB7D012BAB
:101C840005D1564B1B6C554A23F0805313647B6873
:101C94009B69002B00F09B80504B9B6803F00C0366
:101CA400082B5CD07B689B69022B41D14C4B0022F2
:101CB4001A60FFF77BFA386108E0FFF777FA02460B
:101CC4003B69D31A022B01D9032381E0434B1B68E0
:101CD40003F00073002BF0D17B68DA697B681B6A20
:101CE4001A437B685B6A9B011A437B689B6A5B08A7
:101CF400013B1B041A437B68DB6A1B063749134309
:101D04004B60374B01221A60FFF750FA386108E044
:101D1400FFF74CFA02463B69D31A022B01D903237D
:101D240056E02E4B1B6803F00073002BF0D04EE0FE
:101D34002B4B00221A60FFF739FA386108E0FFF7ED
:101D440035FA02463B69D31A022B01D903233FE03B
:101D5400224B1B6803F00073002BF0D137E07B6843
:101D64009B69012B01D1012332E01C4B5B68FB60B2
:101D74007B689B69012B28D0FB6803F480027B6895
:101D8400DB699A4221D1FB6803F03F027B681B6A3E
:101D94009A421AD1FA6847F6C07313407A68526AB5
:101DA4009201934211D1FB6803F440327B689B6A31
:101DB4005B08013B1B049A4207D1FB6803F0706285
:101DC4007B68DB6A1B069A4201D0012300E00023F2
:101DD40018461837BD4680BD0070004000380240E8
:101DE4006000474280B584B000AF786039607B689A
:101DF400002B01D10123CCE0684B1B6803F00703DF
:101E04003A689A420CD9654B3A68D2B21A70634B5D
:101E14001B6803F007033A689A4201D00123B8E033
:101E24007B681B6803F00203002B20D07B681B68CF
:101E340003F00403002B05D0594B9B68584A43F424
:101E4400E05393607B681B6803F00803002B05D004
:101E5400534B9B68524A43F460439360504B9B68D6
:101E640023F0F0027B689B684D4913438B607B68C9
:101E74001B6803F00103002B44D07B685B68012BD3
:101E840007D1474B1B6803F40033002B19D10123FE
:101E94007FE07B685B68022B03D07B685B68032B65
:101EA40007D13F4B1B6803F00073002B09D10123BA
:101EB4006FE03B4B1B6803F00203002B01D10123AD
:101EC40067E0374B9B6823F003027B685B68344907
:101ED40013438B60FFF76AF9F8600AE0FFF766F9CD
:101EE4000246FB68D31A41F28832934201D9032394
:101EF4004FE02B4B9B6803F00C027B685B689B00F4
:101F04009A42EBD1254B1B6803F007033A689A42C7
:101F14000CD2224B3A68D2B21A70204B1B6803F0E1
:101F240007033A689A4201D0012332E07B681B68B8
:101F340003F00403002B08D0194B9B6823F4E052F0
:101F44007B68DB68164913438B607B681B6803F06E
:101F54000803002B09D0124B9B6823F460427B6872
:101F64001B69DB000E4913438B6000F021F8024625
:101F74000B4B9B681B0903F00F030A49CB5C22FA45
:101F840003F3094A1360094B1B681846FFF7CAF8A4
:101F9400002318461037BD4680BD00BF003C0240F8
:101FA40000380240503800080000002004000020DF
:101FB4002DE9B04384B000AF00237B600023FB60B5
:101FC40000233B600023BB60674B9B6803F00C035A
:101FD400082B0DD0082B00F2BD80002B02D0042B5F
:101FE40003D0B7E0614BBB60B7E0614BBB60B4E0CA
:101FF4005D4B5B6803F03F037B605B4B5B6803F402
:102004008003002B4DD0584B5B689B091A464FF058
:10201400000340F2FF104FF0000102EA000803EA57
:102024000109404649464FF000024FF000034B01BE
:1020340043EAD063420110461946B0EB080061EB55
:1020440009014FF000024FF000038B0143EA906353
:102054008201121A63EB01034FF000004FF00001FC
:10206400D90041EA5271D00002460B4612EB080235
:1020740043EB09034FF000004FF00001590241EA1D
:10208400D251500202460B46104619467B681A4646
:102094004FF00003FEF79CF802460B461346FB6024
:1020A4004AE0314B5B689B091A464FF0000340F24B
:1020B400FF104FF0000102EA000403EA0105204684
:1020C40029464FF000024FF000034B0143EAD0636E
:1020D400420110461946001B61EB05014FF0000256
:1020E4004FF000038B0143EA90638201121A63EB01
:1020F40001034FF000004FF00001D90041EA527192
:10210400D00002460B46121945EB03034FF00000C2
:102114004FF00001990241EA9251900202460B46A7
:10212400104619467B681A464FF00003FEF750F834
:1021340002460B461346FB600B4B5B681B0C03F01B
:10214400030301335B003B60FA683B68B2FBF3F3C3
:10215400BB6002E0054BBB6000BFBB68184610378C
:10216400BD46BDE8B08300BF003802400024F4003F
:1021740000127A0080B400AF034B1B681846BD46BA
:102184005DF8047B704700BF0000002080B500AFFD
:10219400FFF7F0FF0246054B9B689B0A03F0070319
:1021A4000349CB5C22FA03F3184680BD0038024091
:1021B4006038000880B500AFFFF7DCFF0246054B2E
:1021C4009B685B0B03F007030349CB5C22FA03F320
:1021D400184680BD003802406038000880B582B0DF
:1021E40000AF78607B68002B01D1012341E07B685C
:1021F40093F83D30DBB2002B06D17B68002283F8D4
:102204003C207868FEF71AFE7B68022283F83D20A2
:102214007B681A687B6804331946104600F08AF814
:102224007B68012283F846207B68012283F83E20E4
:102234007B68012283F83F207B68012283F84020D9
:102244007B68012283F841207B68012283F84220C5
:102254007B68012283F843207B68012283F84420B1
:102264007B68012283F845207B68012283F83D20A6
:10227400002318460837BD4680BD000080B586B0EF
:1022840000AFF860B9607A600023FB75FB6893F8CF
:102294003C30012B01D1022348E0FB68012283F882
:1022A4003C207B680C2B39D801A252F823F000BFE4
:1022B400E922000821230008212300082123000823
:1022C400F722000821230008212300082123000805
:1022D40005230008212300082123000821230008E6
:1022E40013230008FB681B68B968184600F0A2F8BD
:1022F40017E0FB681B68B968184600F001F910E0A4
:10230400FB681B68B968184600F066F909E0FB68C9
:102314001B68B968184600F0C9F902E00123FB758F
:1023240000BFFB68002283F83C20FB7D1846183769
:10233400BD4680BD80B485B000AF786039607B68ED
:102344001B68FB607B68344A93420FD07B68B3F10F
:10235400804F0BD07B68314A934207D07B68304A68
:10236400934203D07B682F4A934208D1FB6823F041
:102374007003FB603B685B68FA681343FB607B682F
:10238400254A93421BD07B68B3F1804F17D07B68FA
:10239400224A934213D07B68214A93420FD07B6830
:1023A400204A93420BD07B681F4A934207D07B6834
:1023B4001E4A934203D07B681D4A934208D1FB68AE
:1023C40023F44073FB603B68DB68FA681343FB60EB
:1023D400FB6823F080023B685B691343FB607B6806
:1023E400FA681A603B689A687B68DA623B681A6824
:1023F4007B689A627B68084A934203D13B681A69F6
:102404007B681A637B6801225A6100BF1437BD469A
:102414005DF8047B704700BF0000014000040040E9
:1024240000080040000C004000400140004401400E
:102434000048014080B487B000AF786039607B68A1
:102444001B6A23F001027B681A627B681B6A7B614A
:102454007B685B683B617B689B69FB60FB6823F07E
:102464007003FB60FB6823F00303FB603B681B689D
:10247400FA681343FB607B6923F002037B613B68CA
:102484009B687A6913437B617B681C4A93420CD135
:102494007B6923F008037B613B68DB687A6913433B
:1024A4007B617B6923F004037B617B68134A93425D
:1024B40011D13B6923F480733B613B6923F40073BE
:1024C4003B613B685B693A6913433B613B689B69C9
:1024D4003A6913433B617B683A695A607B68FA68DE
:1024E4009A613B685A687B685A637B687A691A62A6
:1024F40000BF1C37BD465DF8047B704700000140F7
:1025040080B487B000AF786039607B681B6A23F0C1
:1025140010027B681A627B681B6A7B617B685B685C
:102524003B617B689B69FB60FB6823F4E043FB60D1
:10253400FB6823F44073FB603B681B681B02FA686A
:102544001343FB607B6923F020037B613B689B683A
:102554001B017A6913437B617B681E4A93420DD148
:102564007B6923F080037B613B68DB681B017A692C
:1025740013437B617B6923F040037B617B68154ACD
:10258400934213D13B6923F480633B613B6923F499
:1025940000633B613B685B699B003A6913433B61A1
:1025A4003B689B699B003A6913433B617B683A69CA
:1025B4005A607B68FA689A613B685A687B689A63D8
:1025C4007B687A691A6200BF1C37BD465DF8047BDC
:1025D400704700BF0000014080B487B000AF78604E
:1025E40039607B681B6A23F480727B681A627B689B
:1025F4001B6A7B617B685B683B617B68DB69FB60B2
:10260400FB6823F07003FB60FB6823F00303FB60AB
:102614003B681B68FA681343FB607B6923F400730F
:102624007B613B689B681B027A6913437B617B680F
:102634001D4A93420DD17B6923F400637B613B689F
:10264400DB681B027A6913437B617B6923F4806333
:102654007B617B68144A934213D13B6923F4805312
:102664003B613B6923F400533B613B685B691B019D
:102674003A6913433B613B689B691B013A69134305
:102684003B617B683A695A607B68FA68DA613B6847
:102694005A687B68DA637B687A691A6200BF1C3700
:1026A400BD465DF8047B70470000014080B487B0EC
:1026B40000AF786039607B681B6A23F480527B68C2
:1026C4001A627B681B6A3B617B685B687B617B6821
:1026D400DB69FB60FB6823F4E043FB60FB6823F4E5
:1026E4004073FB603B681B681B02FA681343FB6082
:1026F4003B6923F400533B613B689B681B033A69C5
:1027040013433B617B68104A934209D17B6923F4EC
:1027140080437B613B685B699B017A6913437B61FE
:102724007B687A695A607B68FA68DA613B685A6840
:102734007B681A647B683A691A6200BF1C37BD461D
:102744005DF8047B704700BF0000014080B485B091
:1027540000AF786039607B6893F83C30012B01D17D
:10276400022350E07B68012283F83C207B6802222C
:1027740083F83D207B681B685B68FB607B681B6893
:102784009B68BB60FB6823F07003FB603B681B68BD
:10279400FA681343FB607B681B68FA685A607B68BD
:1027A4001B681C4A934218D07B681B68B3F1804FA6
:1027B40013D07B681B68184A93420ED07B681B6851
:1027C400164A934209D07B681B68154A934204D089
:1027D4007B681B68134A93420CD1BB6823F08003C7
:1027E400BB603B685B68BA681343BB607B681B686B
:1027F400BA689A607B68012283F83D207B680022D6
:1028040083F83C20002318461437BD465DF8047B4A
:10281400704700BF00000140000400400008004071
:10282400000C00400040014080B582B000AF7860E9
:102834007B68002B01D101233FE07B6893F83D3096
:10284400DBB2002B06D17B68002283F83C20786839
:10285400FEF750FB7B68242283F83D207B681B68CD
:10286400DA687B681B6822F40052DA60786800F04A
:10287400DBFD7B681B681A697B681B6822F4904245
:102884001A617B681B685A697B681B6822F02A02FC
:102894005A617B681B68DA687B681B6842F40052E3
:1028A400DA607B6800221A647B68202283F83D206A
:1028B4007B68202283F83E20002318460837BD4653
:1028C40080BD80B58AB002AFF860B9603B60134642
:1028D400FB8000237B61FB6893F83D30DBB2202B47
:1028E4007CD1BB68002B02D0FB88002B01D10123D3
:1028F40075E0FB6893F83C30012B01D102236EE0B4
:10290400FB68012283F83C20FB6800221A64FB6800
:10291400212283F83D20FEF749FC7861FB68FA88A0
:102924009A84FB68FA88DA84FB689B68B3F5805F55
:1029340008D1FB681B69002B04D10023FB61BB6831
:10294400BB6103E0BB68FB610023BB61FB68002241
:1029540083F83C202AE03B6800937B6900228021B5
:10296400F86800F01FFB0346002B01D0032336E078
:10297400FB69002B0BD1BB691B881A46FB681B68DB
:10298400C2F308025A60BB690233BB6107E0FB690A
:102994001A78FB681B685A60FB690133FB61FB68AA
:1029A400DB8C9BB2013B9AB2FB68DA84FB68DB8C5C
:1029B4009BB2002BCFD13B6800937B69002240215E
:1029C400F86800F0EFFA0346002B01D0032306E079
:1029D400FB68202283F83D20002300E002231846F0
:1029E4002037BD4680BD80B584B000AFF860B960C3
:1029F4001346FB80FB6893F83E30DBB2202B1DD1DD
:102A0400BB68002B02D0FB88002B01D1012316E008
:102A1400FB6893F83C30012B01D102230FE0FB68E3
:102A2400012283F83C20FB6800221A63FB881A46C3
:102A3400B968F86800F024FB034600E00223184656
:102A44001037BD4680BD000080B5BAB000AF7860D5
:102A54007B681B681B68C7F8E4307B681B68DB680D
:102A6400C7F8E0307B681B685B69C7F8DC3000237B
:102A7400C7F8D8300023C7F8D430D7F8E43003F0CF
:102A84000F03C7F8D830D7F8D830002B0FD1D7F8B8
:102A9400E43003F02003002B09D0D7F8E03003F032
:102AA4002003002B03D0786800F003FC56E2D7F82B
:102AB400D830002B00F0DE80D7F8DC3003F00103BF
:102AC400002B06D1D7F8E03003F49073002B00F00C
:102AD400D180D7F8E43003F00103002B0BD0D7F8F2
:102AE400E03003F48073002B05D07B681B6C43F04B
:102AF40001027B681A64D7F8E43003F00403002B66
:102B04000BD0D7F8DC3003F00103002B05D07B6831
:102B14001B6C43F002027B681A64D7F8E43003F0BC
:102B24000203002B0BD0D7F8DC3003F00103002B99
:102B340005D07B681B6C43F004027B681A64D7F8E9
:102B4400E43003F00803002B11D0D7F8E03003F091
:102B54002003002B05D1D7F8DC3003F00103002B50
:102B640005D07B681B6C43F008027B681A647B68A1
:102B74001B6C002B00F0ED81D7F8E43003F0200348
:102B8400002B08D0D7F8E03003F02003002B02D04C
:102B9400786800F08EFB7B681B685B6903F0400378
:102BA400402B0CBF01230023DBB2C7F8D4307B6871
:102BB4001B6C03F00803002B03D1D7F8D430002B8F
:102BC4004FD0786800F096FA7B681B685B6903F065
:102BD4004003402B41D17B681B681433C7F89C30F9
:102BE400D7F89C3053E8003FC7F89830D7F89830AE
:102BF40023F04003C7F8D0307B681B681433D7F840
:102C0400D020C7F8A820C7F8A430D7F8A410D7F864
:102C1400A82041E80023C7F8A030D7F8A030002B43
:102C2400D9D17B689B6B002B13D07B689B6B7D4A4F
:102C34001A657B689B6B1846FEF769FC0346002BFC
:102C440016D07B689B6B1B6D7A68926B1046984715
:102C54000EE0786800F090F90AE0786800F08CF9EA
:102C640006E0786800F088F97B6800221A6470E155
:102C740000BF6EE17B681B6B012B40F04A81D7F8E3
:102C8400E43003F01003002B00F04381D7F8E03068
:102C940003F01003002B00F03C810023BB607B6831
:102CA4001B681B68BB607B681B685B68BB60BB6898
:102CB4007B681B685B6903F04003402B40F0B480E1
:102CC4007B689B6B1B685B68A7F8BE30B7F8BE30A7
:102CD400002B00F040817B689B8DB7F8BE209A42A0
:102CE40080F039817B68B7F8BE20DA857B689B6BFE
:102CF400DB69B3F5807F00F088807B681B680C3348
:102D0400C7F88830D7F8883053E8003FC7F88430D4
:102D1400D7F8843023F48073C7F8B8307B681B6815
:102D24000C33D7F8B820C7F89420C7F89030D7F8F8
:102D34009010D7F8942041E80023C7F88C30D7F8D6
:102D44008C30002BD9D17B681B6814337B677B6F75
:102D540053E8003F3B673B6F23F00103C7F8B430EF
:102D64007B681B681433D7F8B420C7F88020FB674E
:102D7400F96FD7F8802041E80023BB67BB6F002BB5
:102D8400E1D17B681B6814333B663B6E53E8003F1C
:102D9400FB65FB6D23F04003C7F8B0307B681B680C
:102DA4001433D7F8B020FA66BB66B96EFA6E41E800
:102DB40000237B667B6E002BE3D17B68202283F8A3
:102DC4003E207B6800221A637B681B680C33FB641B
:102DD400FB6C53E8003FBB64BB6C23F01003C7F8E3
:102DE400AC307B681B680C33D7F8AC20BA657B65C4
:102DF400796DBA6D41E800233B653B6D002BE3D14F
:102E04007B689B6B1846FEF712FB7B689A8D7B6888
:102E1400DB8D9BB2D31A9BB21946786800F0B6F8E2
:102E240099E000BFBF3100087B689A8D7B68DB8D19
:102E34009BB2D31AA7F8CE307B68DB8D9BB2002BF4
:102E440000F08B80B7F8CE30002B00F086807B68D2
:102E54001B680C33BB63BB6B53E8003F7B637B6B2A
:102E640023F49073C7F8C8307B681B680C33D7F819
:102E7400C8207A643B64396C7A6C41E80023FB63B4
:102E8400FB6B002BE3D17B681B6814337B627B6A8A
:102E940053E8003F3B623B6A23F00103C7F8C430A8
:102EA4007B681B681433D7F8C4203A63FB62F96A61
:102EB4003A6B41E80023BB62BB6A002BE3D17B6819
:102EC400202283F83E207B6800221A637B681B68FB
:102ED4000C333B613B6953E8003FFB60FB6823F024
:102EE4001003C7F8C0307B681B680C33D7F8C020C8
:102EF400FA61BB61B969FA6941E800237B617B69C6
:102F0400002BE3D1B7F8CE301946786800F03EF8CC
:102F140023E0D7F8E43003F08003002B09D0D7F87E
:102F2400E03003F08003002B03D0786800F059F9F7
:102F340014E0D7F8E43003F04003002B0ED0D7F8A8
:102F4400E03003F04003002B08D0786800F099F9D2
:102F540004E000BF02E000BF00E000BFE837BD4668
:102F640080BD00BF80B483B000AF786000BF0C3771
:102F7400BD465DF8047B704780B483B000AF7860D1
:102F840000BF0C37BD465DF8047B704780B483B046
:102F940000AF78600B467B8000BF0C37BD465DF800
:102FA400047B704780B590B000AFF860B9603B60B7
:102FB4001346FB7150E0BB6CB3F1FF3F4CD0BB6CCC
:102FC400002B07D0FEF7F2F802463B68D31ABA6C1E
:102FD4009A4241D2FB681B680C33BB62BB6A53E85C
:102FE400003F7B627B6A23F4D073FB63FB681B683E
:102FF4000C33FA6B7A633B63396B7A6B41E80023D9
:10300400FB62FB6A002BE5D1FB681B6814337B6110
:103014007B6953E8003F3B613B6923F00103BB63D9
:10302400FB681B681433BA6B3A62FB61F9693A6A4C
:1030340041E80023BB61BB69002BE5D1FB6820227A
:1030440083F83D20FB68202283F83E20FB680022A1
:1030540083F83C2003230FE0FB681B681A68BB68F5
:103064001340BA689A420CBF01230023DBB21A460C
:10307400FB799A429FD0002318464037BD4680BD55
:1030840080B485B000AFF860B9601346FB80FB687C
:10309400BA689A62FB68FA889A85FB68FA88DA85C6
:1030A400FB6800221A64FB68222283F83E20FB6836
:1030B400002283F83C20FB681B68DA68FB681B6805
:1030C40042F48072DA60FB681B685A69FB681B680B
:1030D40042F001025A61FB681B68DA68FB681B68EE
:1030E40042F02002DA60002318461437BD465DF82A
:1030F400047B704780B495B000AF78607B681B6830
:103104000C337B637B6B53E8003F3B633B6B23F4E3
:103114009073FB647B681B680C33FA6C3A64FB6342
:10312400F96B3A6C41E80023BB63BB6B002BE5D120
:103134007B681B6814333B623B6A53E8003FFB61C6
:10314400FB6923F00103BB647B681B681433BA6C0E
:10315400FA62BB62B96AFA6A41E800237B627B6A5D
:10316400002BE5D17B681B6B012B19D17B681B6895
:103174000C33FB60FB6853E8003FBB60BB6823F083
:1031840010037B647B681B680C337A6CBA617B61C7
:103194007969BA6941E800233B613B69002BE5D1B9
:1031A4007B68202283F83E207B6800221A6300BFDC
:1031B4005437BD465DF8047B704780B584B000AFDA
:1031C40078607B689B6BFB60FB680022DA85FB6898
:1031D4000022DA84F868FFF7CFFE00BF1037BD463F
:1031E40080BD80B485B000AF78607B6893F83D30D3
:1031F400DBB2212B3ED17B689B68B3F5805F14D191
:103204007B681B69002B10D17B681B6AFB60FB6821
:103214001B881A467B681B68C2F308025A607B68E5
:103224001B6A9A1C7B681A6208E07B681B6A591C3B
:103234007A6811621A787B681B685A607B68DB8C39
:103244009BB2013B9BB27A681946D184002B0FD103
:103254007B681B68DA687B681B6822F08002DA608E
:103264007B681B68DA687B681B6842F04002DA609E
:10327400002300E0022318461437BD465DF8047BA2
:10328400704780B582B000AF78607B681B68DA68ED
:103294007B681B6822F04002DA607B68202283F896
:1032A4003D207868FFF75EFE002318460837BD46C8
:1032B40080BD80B58CB000AF78607B6893F83E30F9
:1032C400DBB2222B40F0AB807B689B68B3F5805F58
:1032D40017D17B681B69002B13D10023FB627B6829
:1032E4009B6ABB627B681B685B689BB2C3F3080381
:1032F4009AB2BB6A1A807B689B6A9A1C7B689A6242
:1033040026E07B689B6AFB620023BB627B689B6848
:10331400B3F5805F07D07B689B68002B0AD17B687C
:103324001B69002B06D17B681B685B68DAB2FB6AF9
:103334001A7008E07B681B685B68DBB203F07F03EC
:10334400DAB2FB6A1A707B689B6A5A1C7B689A62C1
:103354007B68DB8D9BB2013B9BB27A681946D185B1
:10336400002B5AD17B681B68DA687B681B6822F0E3
:103374002002DA607B681B68DA687B681B6822F4C9
:103384008072DA607B681B685A697B681B6822F06C
:1033940001025A617B68202283F83E207B681B6B04
:1033A400012B35D17B6800221A637B681B680C33C0
:1033B4007B617B6953E8003F3B613B6923F0100369
:1033C4007B627B681B680C337A6A3A62FB61F96939
:1033D4003A6A41E80023BB61BB69002BE5D17B68F5
:1033E4001B681B6803F01003102B0AD10023FB6039
:1033F4007B681B681B68FB607B681B685B68FB6001
:10340400FB687B689B8D19467868FFF7BFFD02E077
:103414007868FDF7C7FC002302E0002300E00223E4
:1034240018463037BD4680BD2DE9F04F9FB000AF40
:10343400F866FB6E1B681B6923F44050FB6ED96869
:10344400FB6E1A6840EA01031361FB6E9A68FB6E17
:103454001B691A43FB6E5B691A43FB6EDB691343FA
:103464003B67FB6E1B68DB6823F4164121F00C01FB
:10347400FB6E1A683B6F0B43D360FB6E1B685B6982
:1034840023F44070FB6E9969FB6E1A6840EA0103ED
:103494005361FB6E1A68C54B9A4204D0FB6E1A68DE
:1034A400C34B9A4203D1FEF785FE786702E0FEF72C
:1034B4006DFE7867FB6EDB69B3F5004F40F0B680B4
:1034C4007B6F1C464FF0000522462B469118396449
:1034D4005B417B64D7E91023121945EB03034FF0DA
:1034E40000004FF00001D90041EA5271D0000246B9
:1034F4000B46111939666B417B66FB6E5B681A4695
:103504004FF000039118B9635B41FB63D7E90E23C5
:10351400D7E91801FCF75CFE02460B46A54BA3FB5A
:1035240002235B091E017B6F1C464FF000052246F7
:103534002B46911839635B417B63D7E90C2312193D
:1035440045EB03034FF000004FF00001D90041EABE
:103554005271D00002460B461119B9656B41FB65E7
:10356400FB6E5B681A464FF000039118B9625B4129
:10357400FB62D7E90A23D7E91601FCF729FE0246C4
:103584000B468C4BA3FB02135B09642101FB03F381
:10359400D31ADB003233874AA2FB03235B095B00A7
:1035A40003F4F8731E447B6F18464FF00001024683
:1035B4000B4694183C625B417B62D7E908231218DE
:1035C40041EB03034FF000044FF00005DD0045EA32
:1035D4005275D40022462B4614183C654B417B653A
:1035E400FB6E5B681A464FF000039118B9615B41AA
:1035F400FB61D7E90623D7E91401FCF7E9FD02468C
:103604000B466C4BA3FB02135B09642101FB03F320
:10361400D31ADB003233674AA2FB03235B0903F0AE
:103624000702FB6E1B6832449A60B9E07B6F1C464C
:103634004FF0000522462B46911839615B417B61AE
:10364400D7E90423121945EB03034FF000004FF0B0
:103654000001D90041EA5271D00002460B4612EB38
:10366400040843EB0509FB6E5B6818464FF0000144
:103674004FF000024FF000038B0043EA9073820086
:1036840040464946FCF7A4FD02460B46494BA3FBC2
:1036940002235B091E017B6F18464FF000010246AE
:1036A4000B469418BC605B41FB60D7E902231218F7
:1036B40041EB03034FF000044FF00005DD0045EA41
:1036C4005275D40022462B461418BC644B41FB644B
:1036D400FB6E5B6818464FF000014FF000024FF09C
:1036E40000038B0043EA90738200D7E91201FCF7D0
:1036F4006FFD02460B462F4BA3FB02135B096421AB
:1037040001FB03F3D31A1B0132332A4AA2FB03231E
:103714005B0903F0F0031E447B6F18464FF0000171
:1037240002460B4694183C605B417B60D7E900235A
:10373400121841EB03034FF000044FF00005DD00C5
:1037440045EA5275D40022462B4612EB000A43EB9D
:10375400010BFB6E5B6818464FF000014FF000024E
:103764004FF000038B0043EA9073820050465946A1
:10377400FCF72EFD02460B460E4BA3FB02135B091E
:10378400642101FB03F3D31A1B013233094AA2FB60
:1037940003235B0903F00F02FB6E1B6832449A603B
:1037A40000BF7C37BD46BDE8F08F00BF001001406C
:1037B400001401401F85EB5170B50D4D0D4C641B79
:1037C400A4100026A64209D10B4D0C4C00F020F8A1
:1037D400641BA4100026A64205D170BD55F8043B15
:1037E40098470136EEE755F8043B98470136F2E76F
:1037F4007038000870380008703800087438000801
:1038040002440346934200D1704703F8011BF9E7D1
:10381400F8B500BFF8BC08BC9E467047F8B500BFB9
:08382400F8BC08BC9E46704789
:10382C004D6F64653A00000044495341524D454484
:10383C000000000041524D4544000000414C4152F3
:10384C004D4544000000000000000000010203048C
:0C385C0006070809000000000102030438
:083868009CC9FF7F0100000074
:04387000B901000892
:0438740095010008B2
:0C3878000024F40010000000010000001B
:04000005080010914E
:00000001FF
